:020000040800F2
:10000000000000000900000809480A490A4ADFF810
:100010002CD000F012FE0A480A490B4A00F00DFEEF
:100020000A484FF000010A4A00F014FE00F026FED4
:100030000000002000000008F40C00000000012077
:10004000F40C0020F40C000814000000080D00203F
:100050001C01000000F0DCBD00F0E7BD10B5424817
:10006000542100F0B8F94148542100F0B4F9404857
:10007000542100F0B0F93F493B483C4A3F4B0860EF
:100080003D490A603A491960531C0365481C1065D4
:10009000012008653B48344A39A1784400F0F8F85B
:1000A00020B9384878440A3800F08EF937482F4A8A
:1000B00035A1784400F0ECF820B9344878440A3887
:1000C00000F082F932482A4A2FA1784400F0E0F883
:1000D00020B92F4878440A3800F076F940232248A6
:1000E000DC000021224600F0AFF820B1254878441A
:1000F000543800F069F91D4822464023002100F0E1
:10010000A3F820B121487844543800F05DF918482C
:1001100022461023002100F097F8002806D01C4842
:100120007844BDE81040563800F04EB910BD104874
:1001300070B5006D20F001040B4800F01FF90B486A
:1001400000F01CF90A4800F019F909E0206D20F0D0
:100150000105204600F012F9204600F04EF82C462A
:10016000002CF3D170BD0000200D0020740D002084
:10017000C80D0020F80C0020FC0C0020000D002011
:1001800072000000470C000077000000330C0000F4
:100190001F0C00000EB5CDE9000100F0D3FA02906B
:1001A00069460120ABBE0EBD08B56946009002202D
:1001B000ABBE08BD1FB58DE8070069460520ABBE84
:1001C00004B010BD1FB58DE80F0069460620ABBE18
:1001D000F6E708B5694600900920ABBE08BD1CB51E
:1001E000CDE9000169460A20ABBE1CBD704708B5C9
:1001F000694600900C20ABBE08BD70B50446051FD3
:1002000000F012F90068002C14BF446870BD002C87
:1002100018BFAC423CBF20466468F8D301680A1896
:10022000AA4218BF456003D12A68054611440160FF
:1002300028684119A1421CBF6C6070BD616869608B
:1002400021680844286070BD70B5C468A50713D044
:10025000650211D4B2F5807F09D0B2F5007F06D0D7
:10026000B2F5806F08D1012300F1240106E05D1E84
:100270006FF07F46B54201D3012070BD0161C361BB
:10028000416024F470611143C160002070BD000022
:100290002DE9F0410C4607461646104600F06EF870
:1002A0002078611C61280AD0722802D077283CD1BE
:1002B00002E00125002405E00225042402E00824D0
:1002C00048F2020511F8010B2B2806D0622809D04C
:1002D00011F8010C74280AD00BE045F0030544F036
:1002E0000204EFE745F0040544F00104EAE744F0B6
:1002F000100438462146FFF74DFF411C15D0002160
:10030000316171604FF40071F560F1617061200737
:1003100004D530460222002100F000F9306D40F093
:10032000010030653046BDE8F0810020FBE72DE993
:10033000F0410D460646104C206DC10704D041081F
:1003400004D020F00104F7E722460EE0542000F02C
:10035000B6F807000ED0206D47F001010843542184
:100360002065384600F037F83A4629463046BDE861
:10037000F0418DE70020D6E7200D00202DE9F04761
:1003800004464FF000094FF0FF37C568D4E90486F2
:10039000A80707D0204600F071F93046FFF704FFA8
:1003A000002802DA3846BDE8F087280502D5404625
:1003B000FFF723FF4C21204600F00DF8206D20F0C0
:1003C000010020654846EEE710B500F0A1F9BDE850
:1003D000104000F097B94FF0000200B51346944664
:1003E0009646203922BFA0E80C50A0E80C50B1F18D
:1003F0002001BFF4F7AF090728BFA0E80C5048BFA1
:100400000CC05DF804EB890028BF40F8042B08BF3E
:10041000704748BF20F8022B11F0804F18BF00F83A
:10042000012B704770470000004870471C0E0020E9
:10043000704770477047704738B504460A46002039
:10044000694600F012FA002808BF38BD024600993C
:10045000204600F0A4F9012038BD012000F0F3B9D6
:10046000F8B500F0F7F9054600200C46102000BF53
:100470000646A819A0420DD932466946002000F070
:10048000F4F9070008BF00F0DEF90098A04218BF99
:100490000546C419FFF7C8FF05600746F01D20F0A8
:1004A00007004619284600F073F9B44208BFF8BDAA
:1004B000A21B31463868BDE8F84000F070B970B54D
:1004C0000646FFF7B1FF056806F10B0020F00704B0
:1004D000B4429CBF002070BD2B466A68BAB1106858
:1004E000A04210D304F1080188423CBF5068586014
:1004F00007D35168101941601168091B01605860E9
:100500001460101D70BD13465268002AE7D12146C1
:100510002846FFF791FF0028DED170BD2DE9F0419C
:10052000044616460D464769007B80072ED03846A4
:10053000FFF74FFE50BB3EB3012E02D0022E25D155
:1005400004E0204600F045F905441DE03846FFF779
:100550004EFEE168002841F01001E16005DA204616
:1005600000F058F80120BDE8F081C9030BD562689E
:10057000E16A914200D81146A26911442269891AA0
:10058000814200DD08460544002D01DA0220EAE739
:10059000E16A6068E268814206D29103E06203D5B5
:1005A00022F4003141F01002A6690027AE4213DCAC
:1005B000E16A814201D90B4600E0034603EB060CD9
:1005C0002369ACEB030CAC4506DD814201D98C46B6
:1005D00000E084469C4505D1A760276042F02000DA
:1005E000A5620DE0AD1BE669AE1B8142A66000D995
:1005F0000846C01A281A20605819606022F02000AE
:1006000003490840E060002084F84870ABE7000030
:10061000BFCFD7FFC16821F4001141F08001C16054
:1006200000218160016070472DE9F0478146144642
:100630000E464FF0FF383248D5685769054209D059
:100640003846A169FFF7CBFD002811DB2C48C043D9
:100650000540E5602B46324649463846FFF7AAFD7D
:10066000A16920F00042B21A11440028A16103D010
:100670002046FFF7CFFF4046BDE8F08770B504463F
:100680000569C06A6168884200D80846E16821F4BB
:100690002011E160C90312D5A84208D02246411BAF
:1006A0002846FFF7C1FF10B14FF0FF3070BD0020AA
:1006B000E562C4E90150E06820F48030E060002089
:1006C00070BD10B50446C06820F02000E060A16A4B
:1006D000A06988420DD02046FFF7D0FFE06820F4E3
:1006E000405040F01000E060A06AA0612069E06224
:1006F000606044F24001E0688843E06010BD0000A3
:1007000010000200002801D000F03CB87047000043
:1007100010B5014602A000F07DF8012010BD0000D8
:1007200053494752545245443A20526564697265B0
:1007300063743A2063616E2774206F70656E3A208F
:100740000000000010B5431C02E010F8011B71B15D
:100750008107FAD14FF0013202C88C1A8C4314EA97
:10076000C211F9D0C01A0A0603D0C01E10BDC01AAB
:1007700010BD0A0401D0801E10BD0902FCD0401E2D
:1007800010BD000001491820ABBEFEE726000200A4
:1007900000210160C0E90110704710207047034636
:1007A00040688C46002818BF88423CBF034640681A
:1007B000F8D318681844884207D00CF1030020F0E1
:1007C0000700001D411A521A0146081D0A60FFF772
:1007D00014BD10B50146C268900703D0900607D536
:1007E000886A0AE000F066F801210160881E10BDE9
:1007F0008B69486818440B69C01A91F848301BB1DE
:1008000091F84910401A10BD1103FCD50028FADDFB
:10081000401E10BD70B505460C460A2000E06D1C58
:1008200000F040F835B128780028F8D102E0641CC7
:1008300000F038F814B120780028F8D1BDE87040F5
:100840000A2000F02FB810B500F038F8BDE81040CD
:10085000FFF758BF124B694600F580528A421A6072
:1008600001D8114670471960704730B50C4D6B4682
:10087000A3F580532C6822449A420FD89B1A02F5A4
:10088000805003EBD37302EB6303984200D9184600
:10089000C01D20F007020C60101B2A6030BD000054
:1008A000040D002008B569468DF800000320ABBE9A
:1008B00008BD000000487047200E002010B5012838
:1008C00005D0002103A0FFF7A5FF012010BD09A15D
:1008D000F8E7000053494752544D454D3A204F75B3
:1008E00074206F662068656170206D656D6F727928
:1008F000000000003A2048656170206D656D6F72E0
:100900007920636F727275707465640010B542F27D
:10091000283202FB00F1B1F1807F00D310BD4FF00F
:10092000E02359611B6923F004034FF0E0242361A5
:1009300023461B6943F00103236100BF4FF0E0230E
:100940001B6903F48033002BF8D04FF0E0231B69C0
:1009500023F001034FF0E024236100BFDEE72DE91F
:10096000F0430D4614461E46079F002138E0012241
:100970008A402A4001238B409A422FD10023002233
:10098000072901DC0B4604E0A1F1080C0CF0FF0381
:10099000012250F822C04FEA83094FF00F0808FAED
:1009A00009F82CEA080C40F822C050F822C04FEA9F
:1009B000830804FA08F84CEA080C40F822C050F802
:1009C00022C04FF0020808EB830806FA08F84CEA48
:1009D000080C40F822C004B9C76000BF4A1CD1B25D
:1009E0001029C4DBBDE8F08338B51548806944F2AE
:1009F0000401084312498861002002231A46491560
:100A000000901048FFF7ABFF0020012302225102A3
:100A100000900C48FFF7A3FF0B48006840F400501B
:100A2000094908600A2427250020091F0860084694
:100A3000006844EA051108430349091F086038BDEE
:100A400000100240000801400C380140024600211D
:100A500001E0481C81B20A48006800F0200018B983
:100A600042F210708142F4DB42F21070814201D1F7
:100A7000012070470248001D006810700020F8E750
:100A80000038014030B503461D4600240848006880
:100A900040F004000649086002E06D1C601C84B24E
:100AA0002846FFF7D3FF0028F7D0204630BD0000CE
:100AB0000C38014000BF0549096801F08001002998
:100AC000F9D00249091D0860704700000038014054
:100AD00010B504460B4603B910BD0F48006840F03E
:100AE00008000D490860002204E0A05CFFF7E2FF67
:100AF000501C82B29A42F8DB00BF07480C380068ED
:100B000000F040000028F8D06FF0400002490C3996
:100B1000086000BFE0E700000C38014000B50F4856
:100B2000006840F001000D49086000BF0B480068F4
:100B300000F002000028F9D0084800680849084081
:100B4000064908600846006820F4802008600020FC
:100B50004860886000F006F800BD00000010024008
:100B6000FFFFF4FC2848006840F480302649086004
:100B700000BF2548006800F400300028F9D0224862
:100B8000406840F48030204948600846406820F4BE
:100B9000701048600846406840F4E010486008461D
:100BA000006840F08070086000BF1748006800F0DF
:100BB00000700028F9D01448406820F4E060124921
:100BC00048600846406840F4806048600F4800680C
:100BD00020F007000D4908600846006840F0020058
:100BE00008600948406820F003000749486008464B
:100BF000406840F00200486000BF0348406800F0D1
:100C00000C000828F9D17047001002400020024073
:100C100038B505466846FFF735FF044614B94FF06E
:100C2000FF3038BD9DF80000FBE713B50C460121ED
:100C30006846FFF74DFF00981CBD70B503460C4693
:100C400003E00D780570401C491C151EA2F101023D
:100C5000F7D170BD30B5034601E00170401C141E91
:100C6000A2F10102F9D130BD10B504460249204677
:100C7000FFF7F2F910BD0000740D0020144DFFF7CE
:100C80004DFFFFF7B1FE13496420FFF7E5F9114965
:100C90007A20FFF7E1F90F496720FFF7DDF90E49E8
:100CA00008680C49FFF7D8F90C4908780949FFF79B
:100CB000D3F94720A84709E00948FFF7CBF944B228
:100CC000601C18B1E0B20349FFF7C6F9F4E7000071
:100CD000690C0020740D0020080D0020140D002068
:100CE000200D0020423A7474003A7474003A74740F
:100CF00000000000410000000000000000000000B3
:080D00000000000000000000EB
:0400000500000000F7
:00000001FF
