:020000040800F2
:10000000A0040020490100085D180008111500082F
:1000100059180008B5010008751E0008000000000E
:10002000000000000000000000000000491B000864
:10003000B9010008000000001D1B00084B1B000850
:100040006301000863010008630100086301000800
:1000500063010008630100086301000863010008F0
:1000600063010008630100086301000863010008E0
:1000700063010008630100086301000863010008D0
:1000800063010008630100086301000863010008C0
:1000900063010008630100086301000863010008B0
:1000A00063010008630100086301000863010008A0
:1000B0006301000863010008630100086301000890
:1000C0006301000863010008630100086301000880
:1000D000630100086301000863010008651E000851
:1000E0006301000863010008630100086301000860
:1000F0006301000863010008630100086301000850
:10010000630100086301000863010008630100083F
:10011000630100086301000863010008630100082F
:10012000630100086301000863010008630100081F
:10013000DFF810D000F02CF800480047D11E00086E
:10014000AFF30080A004002006488047064800471F
:10015000FEE7FEE7FEE7FEE7FEE7FEE7FEE7FEE777
:10016000FEE7FEE7B91B000831010008D2B201E04A
:1001700000F8012B491EFBD270470022F6E710B5AC
:1001800013460A4604461946FFF7F0FF204610BD05
:10019000064C074D06E0E06840F0010394E80700D4
:1001A00098471034AC42F6D3FFF7C6FF402700084B
:1001B0006027000800BFFEE7704772B600BFFEE789
:1001C0000146002291F82100022808D0042088630B
:1001D00000BF002081F8200000BF012070470868A0
:1001E000006820F00E000B6818600868006820F0B6
:1001F00001000B68186091F8403001209840CB6BEB
:100200005860012081F8210000BF002081F8200003
:1002100000BF1046E2E7000070B50446002594F8E0
:100220002100022803D00420A0630125C1E020683A
:10023000006820F00E00216808602068006820F047
:100240000100216808605C492068884252D95A49F7
:1002500078392068884201D1012047E05649643945
:100260002068884201D1102040E05349503920686D
:10027000884201D1801539E04F493C3920688842D5
:1002800001D1801432E04C4928392068884202D1DB
:100290004FF480302AE0484914392068884202D15E
:1002A0004FF4801022E044492068884201D1400484
:1002B0001CE042492068884201D1012016E03F49F4
:1002C00014312068884201D110200FE03B492831C9
:1002D0002068884201D1801508E038493C31206807
:1002E000884201D1801401E04FF480303349091F66
:1002F000086051E0304978392068884201D10120F6
:1003000047E02D4964392068884201D1102040E03F
:10031000294950392068884201D1801539E02649A1
:100320003C392068884201D1801432E022492839C2
:100330002068884202D14FF480302AE01E491439E7
:100340002068884202D14FF4801022E01A492068C8
:10035000884201D140041CE018492068884201D13C
:10036000012016E0154914312068884201D110207F
:100370000FE0124928312068884201D1801508E039
:100380000E493C312068884201D1801401E04FF4CD
:100390008030094980394860012084F8210000BF7D
:1003A000002084F8200000BF606B10B12046616B14
:1003B0008847284670BD00008000024008040240C3
:1003C0002DE9F04102460B4600208BE001278740D3
:1003D00007EA030100297DD0464F4FEA900C57F8F9
:1003E0002C4087074FEA177C0F2707FA0CF73C4091
:1003F000414FBA4201D1002719E0404FBA4201D122
:10040000012714E03E4FBA4201D102270FE03D4FD1
:10041000BA4201D103270AE03B4FBA4201D1042777
:1004200005E03A4FBA4201D1052700E006274FEA1E
:10043000807C4FEA1C7C07FA0CF7A74230D1870773
:100440004FEA177C0F2707FA0CF42A4F4FEA900C5B
:1004500057F82C70A743DFF89CC04FEA90084CF87F
:1004600028702B4F3F688F43DFF8A4C0CCF8007092
:100470000CF104073F688F430CF1040CCCF80070BA
:100480000CF104073F688F430CF1040CCCF80070AA
:100490000CF104073F688F430CF1040CCCF800709A
:1004A000FF2901D8174600E0171D3D46FF2901D856
:1004B000870002E0A0F10807BF003E462F684FF01A
:1004C0000F0C0CFA06FC27EA0C074FF0040C0CFA90
:1004D00006FC00E005E047EA0C072F60D7688F4371
:1004E000D760401C23FA00F7002F7FF46FAFBDE800
:1004F000F08100000800014000080140000C0140AC
:10050000001001400014014000180140001C01408F
:10051000000401402DE9F847024600239C467BE198
:100520004FF0010808FA03F4D1F8008008EA04004B
:10053000A0427DD1DFF8F4A2D1F80480A8EB0A092B
:10054000D0453AD014DCB8F1030F50D009DCB8F133
:10055000000F31D0B8F1010F1CD0B8F1020F49D112
:1005600020E0B8F1110F18D0B8F1120F42D11EE0FF
:10057000B9F5881F25D006DCB9F5803F20D0B9F544
:10058000801F37D11AE0B9F5001F18D0B9F5041F44
:1005900030D117E0D1F80CC02DE0D1F80C8008F173
:1005A000040C28E0D1F80C8008F1080C23E0D1F805
:1005B0000C8008F10C0C1EE000BF00BF00BF00BFA4
:1005C00000BF00BFD1F80880B8F1000F02D14FF092
:1005D000040C0BE0D1F80880B8F1010F03D14FF003
:1005E000080C146102E04FF0080C546103E04FF076
:1005F000000C00E000BF00BFFF2801D8904601E0DA
:1006000002F104084646FF2802D84FEA830803E0B7
:10061000A3F108084FEA88084746D6F800804FF053
:100620000F0909FA07F928EA09080CFA07F900E0A6
:100630007AE048EA0908C6F80080D1F8048008F09A
:100640008058B8F1805F6FD100BFDFF8E481D8F83F
:10065000188048F00108DFF8D891C9F81880C8461A
:10066000D8F8188008F00108CDF8008000BF00BF5E
:100670004FEAB9384FEA930958F829504FEA83787E
:100680004FEA18794FF00F0808FA09F825EA08052B
:10069000DFF8A081424502D14FF0000824E0DFF8E6
:1006A0009881424502D14FF001081DE0DFF88C81AE
:1006B000424502D14FF0020816E0DFF8848142453E
:1006C00002D14FF003080FE0DFF87881424502D1F4
:1006D0004FF0040808E0DFF87081424502D14FF086
:1006E000050801E04FF006084FEA83794FEA1979CF
:1006F00008FA09F848EA0505DFF850814FEA93093E
:1007000048F82950D1F8048008F48038B8F5803FC3
:100710000BD1DFF83C81D8F8008048EA0008DFF808
:100720003091C9F800800AE075E0DFF82481D8F83C
:10073000008028EA0008DFF81891C9F80080D1F895
:10074000048008F40038B8F5003F0ED1DFF80081CE
:1007500008F10408D8F8008048EA0008DFF8F090B3
:1007600009F10409C9F800800DE0DFF8E48008F120
:100770000408D8F8008028EA0008DFF8D49009F1CE
:100780000409C9F80080D1F8048008F48018B8F58D
:10079000801F0ED1DFF8B88008F10808D8F8008073
:1007A00048EA0008DFF8A89009F10809C9F80080B4
:1007B0000DE0DFF89C8008F10808D8F8008028EAEE
:1007C0000008DFF88C9009F10809C9F80080D1F819
:1007D000048008F40018B8F5001F0ED1DFF870800F
:1007E00008F10C08D8F8008048EA0008DFF86090AB
:1007F00009F10C09C9F800800DE0DFF8548008F118
:100800000C08D8F8008028EA0008DFF8449009F1C5
:100810000C09C9F800805B1CD1F8008028FA03F8A5
:10082000B8F1000F7FF47CAEBDE8F887000011102E
:100830000010024000080140000C0140001001407F
:100840000014014000180140001C01400800014054
:1008500000040140024693680B400BB1012000E008
:10086000002070470AB1016101E00B040361704789
:10087000014800687047000000000020034800683D
:1008800003490978084401490860704700000020C6
:100890000800002010B50848006840F01000064924
:1008A0000860032000F0A8F8002000F007F800F02E
:1008B0002BF8002010BD00000020024070B5044657
:1008C0000E4800784FF47A71B1FBF0F00C490968DA
:1008D000B1FBF0F5284600F00BFC08B1012070BD1B
:1008E000102C07D200222146501E00F047F8054880
:1008F000046001E00120F2E70020F0E7080000209A
:100900000C0000200400002008B500BF11488069D9
:1009100040F001000F4988610846806900F001003D
:10092000009000BF00BF00BF0846C06940F0805083
:10093000C8610846C06900F08050009000BF00BF49
:1009400000BF0549486820F0E06040F00070486052
:1009500000BF08BD001002400000014001460846EB
:10096000002809DB00F01F0301229A4043099B0085
:1009700003F1E023C3F8002100BF70472DE9F05FC9
:1009800080460D461646002701F076FA074639469E
:100990002A46334601F00700C0F1070ABAF1040FF6
:1009A00002D94FF0040A01E0C0F1070AD14600F174
:1009B000040ABAF1070F02D24FF0000A01E0A0F1D9
:1009C000030AD4464FF0010A0AFA09FAAAF1010A09
:1009D0000AEA020A0AFA0CFA4FF0010B0BFA0CFBB6
:1009E000ABF1010B0BEA030B4AEA0B04214640462C
:1009F00001F04AFABDE8F09F00BF00F00702064B85
:100A000019684FF6FF031940044B0B4343EA0221D8
:100A1000014B196000BF70470CED00E00000FA05C3
:100A200070B504460D460CB9012070BD5A480068E7
:100A300000F00700A8420ED25748006820F00700D7
:100A40002843554908600846006800F00700A8429E
:100A500001D00120E9E7207800F0020002281DD132
:100A6000207800F00400042805D14C48406840F488
:100A7000E0604A494860207800F00800082805D165
:100A80004648406840F460504449486043484068E4
:100A900020F0F000A168084340494860207800F049
:100AA000010078B36068012806D13C48006800F472
:100AB000003090B90120B8E76068022806D13748B5
:100AC000006800F0007040B90120AEE733480068CC
:100AD00000F0020008B90120A7E73048406820F084
:100AE0000300616808432D494860FFF7C1FE0646D0
:100AF00009E0FFF7BDFE801B41F28831884202D930
:100B0000032092E707E02548406800F00C00616888
:100B1000B0EB810FEDD12048006800F00700A8423B
:100B20000ED91D48006820F0070028431A490860C4
:100B30000846006800F00700A84201D0012074E7D1
:100B4000207800F00400042807D11448406820F4FD
:100B5000E060E168084311494860207800F008002F
:100B6000082808D10D48406820F46050216940EA07
:100B7000C1000A49486000F03FF808494968C1F3DC
:100B80000311074A515CC8400649086006480068DE
:100B9000FFF794FE002048E70020024000100240CA
:100BA000281F00080C0000200400002001480068F5
:100BB000704700000C00002000B5FFF7F7FF044964
:100BC0004968C1F30221034A515CC84000BD0000DE
:100BD00000100240381F000800B5FFF7E7FF044986
:100BE0004968C1F3C221034A515CC84000BD0000FE
:100BF00000100240381F0008F0B585B00FF26C0CF1
:100C00009CE8E01001A8A0E8E0101CA52D68009564
:100C100000210022002300240020194D696801F002
:100C20000C05F5B1042D02D0082D19D101E01548AD
:100C300019E001ADC1F38346AC5D01F4803555B1D7
:100C40000F4D6D68C5F340451DF805200D4D6543FA
:100C5000B5FBF2F302E00C4D04FB05F3184602E08D
:100C600000BF084800BF00BF05B0F0BD0203040587
:100C7000060708090A0B0C0D0E0F101001020000E8
:100C80000010024000127A0000093D00F8B5044649
:100C90000CB90120F8BD207800F00100002878D0C0
:100CA000F848406800F00C0004280CD0F548406873
:100CB00000F00C00082811D1F248406800F48030A0
:100CC000B0F5803F0AD1EF48006800F400300028FA
:100CD0005FD0606800285CD10120DBE700BF60685E
:100CE000B0F5803F06D1E748006840F48030E54920
:100CF000086028E0606858B9E248006820F4803055
:100D0000E04908600846006820F4802008601AE086
:100D10006068B0F5A02F0BD1DA48006840F480205D
:100D2000D84908600846006840F4803008600AE04E
:100D3000D448006820F48030D24908600846006832
:100D400020F48020086000BF606888B1FFF790FD44
:100D5000054606E0FFF78CFD401B642801D90320FF
:100D600098E7C848006800F400300028F2D010E08E
:100D7000FFF77EFD054606E0FFF77AFD401B64287D
:100D800001D9032086E7BF48006800F4003000283E
:100D9000F2D1207800F00200022857D1B94840680B
:100DA00000F00C0050B1B748406800F00C00082873
:100DB00018D1B448406800F4803098B9B148006850
:100DC00000F0020020B12069012801D0012061E774
:100DD000AC48006820F0F800616940EAC100A94908
:100DE000086033E02069E8B10120A7490860FFF7F7
:100DF0003FFD054606E0FFF73BFD401B022801D9F9
:100E0000032047E79F48006800F002000028F2D066
:100E10009C48006820F0F800616940EAC1009949E7
:100E2000086013E0002098490860FFF721FD05469F
:100E300006E0FFF71DFD401B022801D9032029E72A
:100E40009048006800F002000028F2D1207800F0FD
:100E5000080008282DD1A069B8B101208B4908608D
:100E6000FFF706FD054606E0FFF702FD401B0228DE
:100E700001D903200EE78348406A00F002000028F1
:100E8000F2D0012000F04CFE13E000207F49086002
:100E9000FFF7EEFC054606E0FFF7EAFC401B0228E0
:100EA00001D90320F6E67748406A00F002000028E6
:100EB000F2D1207800F00400042873D10027714893
:100EC000C06900F0805070B900BF6E48C06940F042
:100ED00080506C49C8610846C06900F0805000909D
:100EE00000BF00BF01276A48006800F48070B0B9F5
:100EF0006748006840F4807065490860FFF7B8FCF7
:100F0000054606E0FFF7B4FC401B642801D9032026
:100F1000C0E65F48006800F480700028F2D000BF8F
:100F2000E068012806D15748006A40F001005549A1
:100F3000086227E0E06858B95248006A20F00100D2
:100F4000504908620846006A20F00400086219E06F
:100F5000E06805280BD14B48006A40F0040049497D
:100F600008620846006A40F0010008620AE045484D
:100F7000006A20F00100434908620846006A20F038
:100F80000400086200BFE068A0B1FFF771FC0546ED
:100F900009E0FFF76DFC401B41F28831884202D91D
:100FA000032077E622E03748006A00F002000028BC
:100FB000EFD012E0FFF75CFC054608E0FFF758FCB5
:100FC000401B41F28831884201D9032062E62D4856
:100FD000006A00F002000028F0D1012F05D1294855
:100FE000C06920F080502749C86100BFE069C8B3DC
:100FF0002448406800F00C00082860D0E06902280E
:1010000048D1002020490866FFF732FC054606E07B
:10101000FFF72EFC401B022801D903203AE61948AD
:10102000006800F000700028F2D1206AB0F5803F1F
:1010300007D11448406820F40030A16808431149E2
:101040004860D4E9080108430E49496821F4741145
:1010500008430C49486001200B490866FFF708FC6B
:10106000054607E03DE0FFF703FC401B022801D9DD
:1010700003200FE60348006800F000700028F2D05B
:101080002FE0000000100240000042428004424273
:1010900000700040002014490866FFF7E9FB054690
:1010A00006E0FFF7E5FB401B022801D90320F1E52C
:1010B0000E48006800F000700028F2D111E0E069ED
:1010C000012800D1E6E50948466806F48031206A27
:1010D000814204D106F47011606A814201D001207E
:1010E000D8E50020D6E50000000042420010024092
:1010F00070B504462546681EB0F1807F01D30120FB
:101100000FE0681E4FF0E02148610F214FF0FF30E3
:1011100000F0BAFE00204FF0E0218861072008614E
:10112000002070BD704770472DE9F84F04462068D5
:1011300005682068C668206847694FF00009CA46FC
:1011400005F00F09B9F1000F0AD105F0200038B100
:1011500006F0200020B1204600F064FDBDE8F88FC5
:10116000B9F1000F71D007F0010018B906F49070C2
:1011700000286AD005F0010030B106F4807018B183
:10118000206C40F00100206405F0040030B107F04D
:10119000010018B1206C40F00200206405F002004C
:1011A00030B107F0010018B1206C40F00400206459
:1011B00005F0080048B106F0200010B907F0010062
:1011C00018B1206C40F008002064206C68B305F072
:1011D000200028B106F0200010B1204600F022FDCA
:1011E00020684069C0F3801A206C00F0080010B934
:1011F000BAF1000F22D0204600F0E9FC20684069D7
:1012000000F04000B0B12068406920F04000216843
:101210004861A06B50B15648A16B4863A06BFEF7C4
:10122000FBFF10B1A06B416B88470CE02046FFF735
:101230007AFF08E02046FFF776FF04E02046FFF73C
:1012400072FF0020206489E7FFE7206B012878D136
:1012500005F01000002874D006F01000002870D0AF
:1012600000BF00200090206800680090206840685F
:10127000009000BF00BF2068406900F04000C0B38C
:10128000A06B006840681FFA80F8B8F1000F2FD0FB
:10129000A08D40452CDDA4F82E80A06B806920280D
:1012A0001FD02068C06820F480702168C860206862
:1012B000406920F00100216848612068406920F001
:1012C000400021684861202084F83E00002020630F
:1012D0002068C06820F010002168C860A06BFEF78D
:1012E0006FFFA08DE28D801A81B22046FFF71AFFB2
:1012F00034E7FFE7A08DE18D401A1FFA80F8E08DFA
:10130000E8B1B8F1000F1AD02068C06820F49070DE
:101310002168C8602068406920F0010021684861A8
:10132000202084F83E00002020632068C06820F060
:1013300010002168C86041462046FFF7F3FE0DE724
:10134000FFE705F0800030B106F0800018B12046BC
:1013500000F058FD02E705F0400030B106F0400013
:1013600018B1204600F04EFCF8E600BFF6E600009B
:10137000BB1B000810B504460CB9012010BDA069C4
:1013800000B100E000BF94F83D0028B9002084F8C7
:101390003C00204600F028F8242084F83D00206816
:1013A000C06820F400502168C860204600F0ACFC02
:1013B0002068006920F49040216808612068406935
:1013C00020F02A00216848612068C06840F400507D
:1013D0002168C86000202064202084F83D0084F843
:1013E0003E000020CAE7000010B586B00446002089
:1013F00002900390049005903E492068884230D1C5
:1014000000BF3D48806940F480403B498861084600
:10141000806900F48040019000BF00BF00BF084613
:10142000806940F0040088610846806900F004008B
:10143000019000BF00BF48150290022003900320D6
:10144000059002A92D48FFF765F84FF480600290DF
:10145000002003900120049002A92848FFF75AF8C1
:1014600045E027492068884241D100BF2248C06931
:1014700040F480202049C8610846C06900F48020FB
:10148000019000BF00BF00BF0846806940F0200007
:1014900088610846806900F02000019000BF00BF0D
:1014A00088150290022003900320059002A9154898
:1014B000FFF730F84FF40070029000200390049082
:1014C00002A91048FFF726F800BF0F49486820F02E
:1014D000300040F0E06040F03000486000BF002283
:1014E00011462720FFF74AFA2720FFF737FA06B000
:1014F00010BD00000038014000100240000801400B
:10150000004800400014014000000140704770474F
:1015100000BFFEE708B5009000BF00994A1E009288
:101520000029FAD108BD000000B585B00020019067
:101530000290039004904FF480611448FEF740FF3E
:101540004FF400611148FEF73BFF00BF104880696F
:1015500040F080000E4988610846806900F08000F4
:10156000009000BF00BF11200290032004900815D6
:10157000019001A90548FEF7CDFF4FF400600190EE
:1015800001A90248FEF7C6FF05B000BD001C0140DE
:101590000010024010B5002400224FF4806117486B
:1015A000FFF760F90122D1021448FFF75BF96420CC
:1015B000FFF7B0FF012291021048FFF753F90EE048
:1015C000641C642C08D100224FF480610B48FFF7A3
:1015D00049F94FF0FF3010BD6420FFF79BFF4FF437
:1015E00000610648FFF736F90028E9D100224FF4E0
:1015F00080610248FFF736F90020ECE7001C01404B
:1016000010B5012291020A48FFF72CF90122D102FC
:101610000748FFF727F96420FFF77CFF00224FF40B
:1016200000610348FFF71EF96420FFF773FF10BD48
:10163000001C014010B500224FF400610948FFF77B
:1016400011F9012291020748FFF70CF96420FFF716
:1016500061FF0122D1020348FFF704F96420FFF77C
:1016600059FF10BD001C014070B50446002500BFA5
:1016700023E000224FF480611248FFF7F3F8642062
:10168000FFF748FF04F0800028B10122D1020D4885
:10169000FFF7E8F805E000224FF400610948FFF782
:1016A000E1F86006040E012291020648FFF7DAF81D
:1016B0006420FFF72FFF681CC5B2082DD9DBFFF7A8
:1016C00069FF70BD001C014000B585B0002001908D
:1016D00002900390049000BF3F48806940F04000B2
:1016E0003D4988610846806900F04000009000BFD5
:1016F00000BF00BF0846806940F0100088610846BE
:10170000806900F01000009000BF00BF00BF0846D5
:10171000806940F0800088610846806900F08000A0
:10172000009000BF00BF00BF0846806940F0200065
:1017300088610846806900F02000009000BF00BF6B
:1017400000BF0846806940F004008861084680694F
:1017500000F00400009000BF00BF012240211F489C
:10176000FFF780F801224FF478611D48FFF77AF8FF
:10177000012240211B48FFF775F84020019001200D
:10178000029003900320049001A91448FEF7C2FEC2
:101790004FF47860019001200290039003200490A0
:1017A00001A90F48FEF7B6FE4FF44040019000201B
:1017B00002900120039001A90848FEF7ABFE4020EB
:1017C00001900120029003900320049001A9054894
:1017D000FEF7A0FE05B000BD001002400018014059
:1017E000001C01400010014010B50B480B49086077
:1017F0004FF4E1304860002108488160C160016118
:101800000C21416100218161C161FFF7B3FD08B185
:10181000FEF7D3FC10BD000000380140140000208A
:1018200010B50B480B4908604FF4E13048600021C7
:1018300008488160C16001610C2141610021816122
:10184000C161FFF797FD08B1FEF7B7FC10BD0000BE
:10185000004800405800002000BFFEE700BFFEE740
:1018600010B5A0B00021084600F024F900240DE0D6
:1018700080216846FEF781FC0021204600F01AF91D
:101880008021684600F030F9601CC4B2082CEFDB00
:1018900020B010BD10B5102000F0DEF83F2000F0A1
:1018A000E8F8002000F0BFF8402000F0C9F8A120BF
:1018B00000F00AF9C82000F007F90021012000F02B
:1018C0007FF87F2000F094F8A42000F0FDF8A62017
:1018D00000F0FAF80821002000F093F8012000F051
:1018E00047F8AF2000F0F0F810BD2DE9F0410446B4
:1018F0000D4617463E4618E0782D05DD0025A01C54
:10190000C4B2072C00DD002432782946204600F0BE
:1019100011F805F10800C5B27F2D05DD0025A01CDA
:10192000C4B2072C00DD0024761C30780028E3D1F7
:10193000BDE8F08170B505460E461446314628468E
:1019400000F0B8F8094901EB0410082100F0CCF8C8
:10195000691CC8B2314600F0ADF8044901EB04112E
:1019600001F10800082100F0BFF870BD401F000819
:1019700010B5044614B1012C00D010BD8D2000F02C
:10198000A3F8102101EB8401C8B200F09DF800BF5C
:10199000F3E7000010B5044608480078022801D19A
:1019A0007F2C00DD10BD04F00F0000F08DF8102139
:1019B00001EB241000F088F800BFF3E710000020CE
:1019C00070B504460D4614B1012C00D070BD15B1A0
:1019D000012D00D0FAE7DA2000F076F8022101EBC1
:1019E000041101EB4511C8B200F06EF800BFEDE73D
:1019F00010B50446812000F067F8204600F064F836
:101A000010BD70B504460D460F2C01DC0F2D00DD16
:101A100070BDD52000F058F804EB0511C8B200F0F5
:101A200053F800BFF4E710B504463F2C00DD10BDAD
:101A3000D32000F049F8204600F046F800BFF6E752
:101A400010B504463F2C00DD10BD04F14001C8B2C2
:101A500000F03AF800BFF7E710B50446032C00DDAC
:101A600010BD202000F030F8204600F02DF800BF17
:101A7000F6E710B504460F2C01DB3F2C00DD10BD4E
:101A8000A82000F021F8204600F01EF800BFF6E77D
:101A900010B5044606480078022801D1072C00DD65
:101AA00010BD04F1B001C8B200F00EF800BFF7E7B6
:101AB0001000002070B505460C462846FFF7E8FFE9
:101AC0002046FFF767FF70BD10B50446FFF798FD8D
:101AD0007820FFF7C9FD0020FFF7C6FD2046FFF77D
:101AE000C3FDFFF7A7FD10BD70B504460E4604B94F
:101AF00070BDFFF785FD7820FFF7B6FD4020FFF7AA
:101B0000B3FD002504E0605DFFF7AEFD681CC5B2C3
:101B1000B542F8DBFFF78EFD00BFE9E77047000034
:101B200008B508490968C9084FF47A72B1FBF2F1A7
:101B30004143009100BF00BF00994A1E0092002956
:101B4000F9D108BD0C000020704710B5FEF796FED5
:101B500010BD00B58FB0282105A8FEF70EFB14219B
:101B60006846FEF70AFB012005900004069000205D
:101B700007900120099002200C90C1030D914FF4B1
:101B8000E0110E9105A8FFF781F808B1FEF715FBEB
:101B90000F20009002200190002002904FF48060FE
:101BA00003900020049002216846FEF739FF08B137
:101BB000FEF703FB0FB000BD704770B505466C6AB9
:101BC0000020E085E0842046FFF7ADFA70BD016893
:101BD000C96821F490710268D1600168496921F0F7
:101BE000010102685161016B012905D10168C968D1
:101BF00021F010010268D160202180F83E10002100
:101C00000163704710B504462068C06820F04000AA
:101C10002168C860202084F83D002046FFF777FC4B
:101C2000002010BDF8B5044694F83E00222869D182
:101C3000A068B0F5805F0CD1206950B90025A66A74
:101C400020684068C0F308003080A06A801CA06251
:101C500015E0A56A0026A068B0F5805F03D0A068F3
:101C600028B9206918B920684068287004E0206805
:101C7000406800F07F002870A06A401CA062E08DE0
:101C8000401E80B2E085A8BB2068C06820F020001C
:101C90002168C8602068C06820F480702168C8602E
:101CA0002068406920F0010021684861202084F804
:101CB0003E00206B01281ED1002020632068C068F0
:101CC00020F010002168C8602068006800F0100053
:101CD00010280AD100BF0020009020680068009002
:101CE00020684068009000BF00BFA18D2046FFF72C
:101CF00019FA03E004E02046FFF708FC0020F8BDD5
:101D00000020FCE70220FAE770B504462168096963
:101D100021F44051E2681143226811612269A168EF
:101D20001143626941EA02052168C96841F20C6207
:101D3000914329432268D1602168496921F44071A7
:101D4000A2691143226851612D4A2168914202D152
:101D5000FEF742FF01E0FEF72FFF00EBC00101EBB1
:101D6000001162689200B1FBF2F100EBC00202EBDD
:101D7000001263689B00B2FBF3F26423B2FBF3F240
:101D800002EBC20303EB0212A1EB8201322202EB4F
:101D900001116422B1FBF2F101F0F00100EBC0028D
:101DA00002EB001263689B00B2FBF3F26423B2FB08
:101DB000F3F201EB021200EBC00101EB00116368CA
:101DC0009B00B1FBF3F100EBC00303EB001366686B
:101DD000B600B3FBF6F36426B3FBF6F303EBC306DE
:101DE00006EB0313A1EB8301322303EB0111642300
:101DF000B1FBF3F101F00F0111442268916070BD55
:101E000000380140014691F83D00212828D188681A
:101E1000B0F5805F0BD1086948B90A6A1088C0F331
:101E200008000B685860086A801C086205E00B6AAD
:101E3000581C086218780B685860C88C401E80B225
:101E4000C88458B90868C06820F080000B68D86062
:101E50000868C06840F040000B68D86000207047F8
:101E60000220FCE710B50248FFF75EF910BD000044
:101E70005800002000BFFEE702480068C0F30220BF
:101E8000704700000CED00E010B5002804DB0A07E5
:101E9000130E054A135406E00A07140E034A00F015
:101EA0000F031B1FD45410BD00E400E018ED00E048
:101EB00002E008C8121F08C1002AFAD17047704713
:101EC000002001E001C1121F002AFBD17047000071
:101ED000FEF7E0FCFFF73DFEFFF7F6FBFFF784FCA3
:101EE000FFF79EFCFFF720FBFFF7D4FCFFF7B8FCE1
:101EF00003A200210846FFF7F8FC00BFFEE7000040
:101F00004142434445464748494A4B4C4D4E4F5049
:101F10005152535455565758595A31323334353635
:101F200037383930000000000000000000000000D9
:101F3000010203040607080900000000010203046F
:101F40000000000000000000000000000000000091
:101F500000FE020202020202003F20202020202078
:101F60000000000000000000000000000000000071
:101F700000FE020202020202003F20202020202058
:101F800000FE020202020202003F20202020202048
:101F900000FE020202020202003F20202020202038
:101FA00000FE020202020202003F20202020202028
:101FB00000FE020202020202003F20202020202018
:101FC00000FE020202020202003F20202020202008
:101FD0000000000000000000000000000000000001
:101FE00000000000000000000000000000000000F1
:101FF00000000000000000000000000000000000E1
:1020000000FE020202020202003F202020202020C7
:1020100000FE020202020202003F202020202020B7
:1020200000FE020202020202003F202020202020A7
:1020300000FE020202020202003F20202020202097
:1020400000FE020202020202003F20202020202087
:1020500000FE020202020202003F20202020202077
:1020600000FE020202020202003F20202020202067
:1020700000FE020202020202003F20202020202057
:1020800000FE020202020202003F20202020202047
:1020900000FE020202020202003F20202020202037
:1020A00000FE020202020202003F20202020202027
:1020B00000FE020202020202003F20202020202017
:1020C00000FE020202020202003F20202020202007
:1020D00000FE020202020202003F202020202020F7
:1020E00000FE020202020202003F202020202020E7
:1020F00000FE020202020202003F202020202020D7
:1021000000000000000000000000000000000000CF
:1021100000000000000000000000000000000000BF
:1021200000000000000000000000000000000000AF
:10213000000000000000000000000000000000009F
:10214000000000000000000000000000000000008F
:10215000000000F800000000000000330000000054
:1021600000100C02100C0200000000000000000033
:102170000040C07840C0780000043F04043F0400E1
:1021800000708888FC08300000182020FF211E0005
:10219000F008F0806018000000310C031E211E00C2
:1021A00000F00888700000001E21232C1927211040
:1021B00000120E00000000000000000000000000FF
:1021C000000000E018040200000000071820400092
:1021D00000020418E0000000004020180700000082
:1021E000404080F0804040000202010F01020200E6
:1021F00000000000E0000000000101010F010101EA
:1022000000000000000000000090700000000000CE
:1022100000000000000000000001010101010100B8
:10222000000000000000000000303000000000004E
:1022300000000000C0380400006018070000000023
:1022400000E010080810E000000F102020100F0020
:1022500000001010F8000000000020203F202000A7
:10226000007008080808F0000030282422213000FF
:1022700000300808088870000018202121221C0066
:102280000000804030F8000000060524243F24248C
:1022900000F88888880808000019202020110E0006
:1022A00000E0108888900000000F112020201F00FF
:1022B00000180808886818000000003E01000000AF
:1022C0000070880808887000001C222121221C0050
:1022D00000F008080810E0000001122222110F008F
:1022E000000000C0C000000000000030300000000E
:1022F0000000008000000000000000E0000000007E
:102300000000804020100800000102040810200096
:102310000040404040404000000202020202020031
:102320000008102040800000002010080402010076
:102330000070480808887000000000303700000076
:10234000C030C828E810E000071827282F281700F9
:102350000000C038E0000000203C230202273820A3
:1023600008F8888888700000203F202020110E0087
:10237000C03008080808380007182020201008007E
:1023800008F808080810E000203F202020100F0067
:1023900008F88888E8081000203F20202320180033
:1023A00008F88888E8081000203F2000030000009B
:1023B000C03008080838000007182020221E02003C
:1023C00008F808000008F808203F210101213F20FB
:1023D000000808F8080800000020203F2020000026
:1023E00000000808F8080800C08080807F00000016
:1023F00008F888C028180800203F2001263820004F
:1024000008F8080000000000203F202020203000B5
:1024100008F8F800F8F80800203F013E013F2000CE
:1024200008F830C00008F808203F200007183F00D7
:10243000E01008080810E0000F10202020100F0006
:1024400008F808080808F000203F210101010000F9
:10245000E01008080810E0000F10282830504F0046
:1024600008F8888888887000203F2000030C3020FE
:1024700000708808080838000038202121221C003C
:10248000180808F8080818000000203F2000000085
:1024900008F808000008F808001F202020201F006E
:1024A0000878880000C83808000007380E010000CE
:1024B00008F800F800F8080000033E013E030000A1
:1024C000081868808068180820302C03032C3020FE
:1024D0000838C800C83808000000203F200000006D
:1024E00010080808C83808002038262120201800C5
:1024F000000000FE020202000000007F4040400099
:10250000000438C000000000000000010638C000D0
:1025100000020202FE000000004040407F00000078
:10252000000004020204000000000000000000009F
:10253000000000000000000080808080808080809B
:102540000002020400000000000000000000000083
:10255000000080808000000000192424123F200029
:1025600010F0008080000000003F112020110E00BC
:102570000000008080800000000E1120202011004B
:10258000000080808090F000001F202020103F205D
:102590000000808080800000001F24242424170075
:1025A000008080E0909020000020203F202000004C
:1025B0000000808080808000006B94949493600081
:1025C00010F0008080800000203F210000203F208C
:1025D00000809898000000000020203F202000008C
:1025E000000000809898000000C08080807F00007C
:1025F00010F0000080808000203F24062930200059
:10260000001010F8000000000020203F20200000F3
:102610008080808080808000203F20003F20003F1D
:102620008080008080800000203F210000203F202B
:102630000000808080800000001F202020201F00DC
:10264000808000808000000080FF912020110E001B
:102650000000008080008000000E11202091FF808B
:10266000808080008080800020203F2120000100A9
:1026700000008080808080000033242424241900FE
:10268000008080E0808000000000001F20201000FB
:102690008080000000808000001F202020103F204C
:1026A000808080008080800000030C300C030000DC
:1026B0008080008080008080010E300C0738060189
:1026C00000808080008080000020310E2E312000AC
:1026D000808080000080808000818678180601005C
:1026E00000808080808080000021302C22213000FA
:1026F0000000000000FC020200000000013E40401B
:1027000000000000FF00000000000000FF000000CB
:102710000202FC000000000040403E0100000000FA
:10272000000201020204020000000000000000009C
:102730000000000000000000000000000000000099
:10274000602700080000002014000000B01E0008F0
:1027500074270008140000208C040000C01E00082C
:102760000000000010000000010000000024F40040
:042770000200000063
:0400000508000131BD
:00000001FF
